{
  "_format": "hh-sol-artifact-1",
  "contractName": "Mindu",
  "sourceName": "contracts/Mindu.sol",
  "abi": [
    {
      "inputs": [
        {
          "internalType": "uint256",
          "name": "initialSupply",
          "type": "uint256"
        },
        {
          "internalType": "address[]",
          "name": "defaultOperators",
          "type": "address[]"
        }
      ],
      "stateMutability": "nonpayable",
      "type": "constructor"
    },
    {
      "anonymous": false,
      "inputs": [
        {
          "indexed": true,
          "internalType": "address",
          "name": "owner",
          "type": "address"
        },
        {
          "indexed": true,
          "internalType": "address",
          "name": "spender",
          "type": "address"
        },
        {
          "indexed": false,
          "internalType": "uint256",
          "name": "value",
          "type": "uint256"
        }
      ],
      "name": "Approval",
      "type": "event"
    },
    {
      "anonymous": false,
      "inputs": [
        {
          "indexed": true,
          "internalType": "address",
          "name": "operator",
          "type": "address"
        },
        {
          "indexed": true,
          "internalType": "address",
          "name": "tokenHolder",
          "type": "address"
        }
      ],
      "name": "AuthorizedOperator",
      "type": "event"
    },
    {
      "anonymous": false,
      "inputs": [
        {
          "indexed": true,
          "internalType": "address",
          "name": "operator",
          "type": "address"
        },
        {
          "indexed": true,
          "internalType": "address",
          "name": "from",
          "type": "address"
        },
        {
          "indexed": false,
          "internalType": "uint256",
          "name": "amount",
          "type": "uint256"
        },
        {
          "indexed": false,
          "internalType": "bytes",
          "name": "data",
          "type": "bytes"
        },
        {
          "indexed": false,
          "internalType": "bytes",
          "name": "operatorData",
          "type": "bytes"
        }
      ],
      "name": "Burned",
      "type": "event"
    },
    {
      "anonymous": false,
      "inputs": [
        {
          "indexed": true,
          "internalType": "address",
          "name": "operator",
          "type": "address"
        },
        {
          "indexed": true,
          "internalType": "address",
          "name": "to",
          "type": "address"
        },
        {
          "indexed": false,
          "internalType": "uint256",
          "name": "amount",
          "type": "uint256"
        },
        {
          "indexed": false,
          "internalType": "bytes",
          "name": "data",
          "type": "bytes"
        },
        {
          "indexed": false,
          "internalType": "bytes",
          "name": "operatorData",
          "type": "bytes"
        }
      ],
      "name": "Minted",
      "type": "event"
    },
    {
      "anonymous": false,
      "inputs": [
        {
          "indexed": true,
          "internalType": "address",
          "name": "previousOwner",
          "type": "address"
        },
        {
          "indexed": true,
          "internalType": "address",
          "name": "newOwner",
          "type": "address"
        }
      ],
      "name": "OwnershipTransferred",
      "type": "event"
    },
    {
      "anonymous": false,
      "inputs": [
        {
          "indexed": true,
          "internalType": "address",
          "name": "operator",
          "type": "address"
        },
        {
          "indexed": true,
          "internalType": "address",
          "name": "tokenHolder",
          "type": "address"
        }
      ],
      "name": "RevokedOperator",
      "type": "event"
    },
    {
      "anonymous": false,
      "inputs": [
        {
          "indexed": true,
          "internalType": "address",
          "name": "operator",
          "type": "address"
        },
        {
          "indexed": true,
          "internalType": "address",
          "name": "from",
          "type": "address"
        },
        {
          "indexed": true,
          "internalType": "address",
          "name": "to",
          "type": "address"
        },
        {
          "indexed": false,
          "internalType": "uint256",
          "name": "amount",
          "type": "uint256"
        },
        {
          "indexed": false,
          "internalType": "bytes",
          "name": "data",
          "type": "bytes"
        },
        {
          "indexed": false,
          "internalType": "bytes",
          "name": "operatorData",
          "type": "bytes"
        }
      ],
      "name": "Sent",
      "type": "event"
    },
    {
      "anonymous": false,
      "inputs": [
        {
          "indexed": true,
          "internalType": "address",
          "name": "from",
          "type": "address"
        },
        {
          "indexed": true,
          "internalType": "address",
          "name": "to",
          "type": "address"
        },
        {
          "indexed": false,
          "internalType": "uint256",
          "name": "value",
          "type": "uint256"
        }
      ],
      "name": "Transfer",
      "type": "event"
    },
    {
      "inputs": [
        {
          "internalType": "address",
          "name": "holder",
          "type": "address"
        },
        {
          "internalType": "address",
          "name": "spender",
          "type": "address"
        }
      ],
      "name": "allowance",
      "outputs": [
        {
          "internalType": "uint256",
          "name": "",
          "type": "uint256"
        }
      ],
      "stateMutability": "view",
      "type": "function"
    },
    {
      "inputs": [
        {
          "internalType": "address",
          "name": "spender",
          "type": "address"
        },
        {
          "internalType": "uint256",
          "name": "value",
          "type": "uint256"
        }
      ],
      "name": "approve",
      "outputs": [
        {
          "internalType": "bool",
          "name": "",
          "type": "bool"
        }
      ],
      "stateMutability": "nonpayable",
      "type": "function"
    },
    {
      "inputs": [
        {
          "internalType": "address",
          "name": "operator",
          "type": "address"
        }
      ],
      "name": "authorizeOperator",
      "outputs": [],
      "stateMutability": "nonpayable",
      "type": "function"
    },
    {
      "inputs": [
        {
          "internalType": "address",
          "name": "tokenHolder",
          "type": "address"
        }
      ],
      "name": "balanceOf",
      "outputs": [
        {
          "internalType": "uint256",
          "name": "",
          "type": "uint256"
        }
      ],
      "stateMutability": "view",
      "type": "function"
    },
    {
      "inputs": [
        {
          "internalType": "uint256",
          "name": "amount",
          "type": "uint256"
        },
        {
          "internalType": "bytes",
          "name": "data",
          "type": "bytes"
        }
      ],
      "name": "burn",
      "outputs": [],
      "stateMutability": "nonpayable",
      "type": "function"
    },
    {
      "inputs": [],
      "name": "decimals",
      "outputs": [
        {
          "internalType": "uint8",
          "name": "",
          "type": "uint8"
        }
      ],
      "stateMutability": "pure",
      "type": "function"
    },
    {
      "inputs": [],
      "name": "defaultOperators",
      "outputs": [
        {
          "internalType": "address[]",
          "name": "",
          "type": "address[]"
        }
      ],
      "stateMutability": "view",
      "type": "function"
    },
    {
      "inputs": [],
      "name": "granularity",
      "outputs": [
        {
          "internalType": "uint256",
          "name": "",
          "type": "uint256"
        }
      ],
      "stateMutability": "view",
      "type": "function"
    },
    {
      "inputs": [
        {
          "internalType": "address",
          "name": "operator",
          "type": "address"
        },
        {
          "internalType": "address",
          "name": "tokenHolder",
          "type": "address"
        }
      ],
      "name": "isOperatorFor",
      "outputs": [
        {
          "internalType": "bool",
          "name": "",
          "type": "bool"
        }
      ],
      "stateMutability": "view",
      "type": "function"
    },
    {
      "inputs": [],
      "name": "name",
      "outputs": [
        {
          "internalType": "string",
          "name": "",
          "type": "string"
        }
      ],
      "stateMutability": "view",
      "type": "function"
    },
    {
      "inputs": [
        {
          "internalType": "address",
          "name": "account",
          "type": "address"
        },
        {
          "internalType": "uint256",
          "name": "amount",
          "type": "uint256"
        },
        {
          "internalType": "bytes",
          "name": "data",
          "type": "bytes"
        },
        {
          "internalType": "bytes",
          "name": "operatorData",
          "type": "bytes"
        }
      ],
      "name": "operatorBurn",
      "outputs": [],
      "stateMutability": "nonpayable",
      "type": "function"
    },
    {
      "inputs": [
        {
          "internalType": "address",
          "name": "sender",
          "type": "address"
        },
        {
          "internalType": "address",
          "name": "recipient",
          "type": "address"
        },
        {
          "internalType": "uint256",
          "name": "amount",
          "type": "uint256"
        },
        {
          "internalType": "bytes",
          "name": "data",
          "type": "bytes"
        },
        {
          "internalType": "bytes",
          "name": "operatorData",
          "type": "bytes"
        }
      ],
      "name": "operatorSend",
      "outputs": [],
      "stateMutability": "nonpayable",
      "type": "function"
    },
    {
      "inputs": [],
      "name": "owner",
      "outputs": [
        {
          "internalType": "address",
          "name": "",
          "type": "address"
        }
      ],
      "stateMutability": "view",
      "type": "function"
    },
    {
      "inputs": [],
      "name": "renounceOwnership",
      "outputs": [],
      "stateMutability": "nonpayable",
      "type": "function"
    },
    {
      "inputs": [
        {
          "internalType": "address",
          "name": "operator",
          "type": "address"
        }
      ],
      "name": "revokeOperator",
      "outputs": [],
      "stateMutability": "nonpayable",
      "type": "function"
    },
    {
      "inputs": [
        {
          "internalType": "address",
          "name": "recipient",
          "type": "address"
        },
        {
          "internalType": "uint256",
          "name": "amount",
          "type": "uint256"
        },
        {
          "internalType": "bytes",
          "name": "data",
          "type": "bytes"
        }
      ],
      "name": "send",
      "outputs": [],
      "stateMutability": "nonpayable",
      "type": "function"
    },
    {
      "inputs": [],
      "name": "symbol",
      "outputs": [
        {
          "internalType": "string",
          "name": "",
          "type": "string"
        }
      ],
      "stateMutability": "view",
      "type": "function"
    },
    {
      "inputs": [],
      "name": "totalSupply",
      "outputs": [
        {
          "internalType": "uint256",
          "name": "",
          "type": "uint256"
        }
      ],
      "stateMutability": "view",
      "type": "function"
    },
    {
      "inputs": [
        {
          "internalType": "address",
          "name": "recipient",
          "type": "address"
        },
        {
          "internalType": "uint256",
          "name": "amount",
          "type": "uint256"
        }
      ],
      "name": "transfer",
      "outputs": [
        {
          "internalType": "bool",
          "name": "",
          "type": "bool"
        }
      ],
      "stateMutability": "nonpayable",
      "type": "function"
    },
    {
      "inputs": [
        {
          "internalType": "address",
          "name": "holder",
          "type": "address"
        },
        {
          "internalType": "address",
          "name": "recipient",
          "type": "address"
        },
        {
          "internalType": "uint256",
          "name": "amount",
          "type": "uint256"
        }
      ],
      "name": "transferFrom",
      "outputs": [
        {
          "internalType": "bool",
          "name": "",
          "type": "bool"
        }
      ],
      "stateMutability": "nonpayable",
      "type": "function"
    },
    {
      "inputs": [
        {
          "internalType": "address",
          "name": "newOwner",
          "type": "address"
        }
      ],
      "name": "transferOwnership",
      "outputs": [],
      "stateMutability": "nonpayable",
      "type": "function"
    }
  ],
  "bytecode": "0x60806040523480156200001157600080fd5b506040516200429f3803806200429f833981810160405281019062000037919062000a94565b6040518060400160405280600b81526020017f4d696e647520546f6b656e0000000000000000000000000000000000000000008152506040518060400160405280600581526020017f4d494e4455000000000000000000000000000000000000000000000000000000815250828260029080519060200190620000bc92919062000859565b508160039080519060200190620000d592919062000859565b508060049080519060200190620000ee929190620008ea565b5060005b8151811015620001ab576001600560008484815181106200013c577f4e487b7100000000000000000000000000000000000000000000000000000000600052603260045260246000fd5b602002602001015173ffffffffffffffffffffffffffffffffffffffff1673ffffffffffffffffffffffffffffffffffffffff16815260200190815260200160002060006101000a81548160ff0219169083151502179055508080620001a29062000f0d565b915050620000f2565b50731820a4b7618bde71dce8cdc73aab6c95905fad2473ffffffffffffffffffffffffffffffffffffffff166329965a1d307fac7fbab5f54a3ca8194167523c6753bfeb96a445279294b6125b68cce2177054306040518463ffffffff1660e01b81526004016200021f9392919062000c58565b600060405180830381600087803b1580156200023a57600080fd5b505af11580156200024f573d6000803e3d6000fd5b50505050731820a4b7618bde71dce8cdc73aab6c95905fad2473ffffffffffffffffffffffffffffffffffffffff166329965a1d307faea199e31a596269b42cdafd93407f14436db6e4cad65417994c2eb37381e05a306040518463ffffffff1660e01b8152600401620002c69392919062000c58565b600060405180830381600087803b158015620002e157600080fd5b505af1158015620002f6573d6000803e3d6000fd5b505050505050506200031d620003116200035760201b60201c565b6200035f60201b60201c565b6200034f338360405180602001604052806000815250604051806020016040528060008152506200042560201b60201c565b5050620010cb565b600033905090565b6000600960009054906101000a900473ffffffffffffffffffffffffffffffffffffffff16905081600960006101000a81548173ffffffffffffffffffffffffffffffffffffffff021916908373ffffffffffffffffffffffffffffffffffffffff1602179055508173ffffffffffffffffffffffffffffffffffffffff168173ffffffffffffffffffffffffffffffffffffffff167f8be0079c531659141344cd1fd0a4f28419497f9722a3daafe3b4186f6b6457e060405160405180910390a35050565b6200043b8484848460016200044160201b60201c565b50505050565b600073ffffffffffffffffffffffffffffffffffffffff168573ffffffffffffffffffffffffffffffffffffffff161415620004b4576040517f08c379a0000000000000000000000000000000000000000000000000000000008152600401620004ab9062000c95565b60405180910390fd5b6000620004c66200035760201b60201c565b9050620004dd81600088886200064260201b60201c565b8460016000828254620004f1919062000dc6565b92505081905550846000808873ffffffffffffffffffffffffffffffffffffffff1673ffffffffffffffffffffffffffffffffffffffff168152602001908152602001600020600082825462000548919062000dc6565b925050819055506200056781600088888888886200064860201b60201c565b8573ffffffffffffffffffffffffffffffffffffffff168173ffffffffffffffffffffffffffffffffffffffff167f2fe5be0146f74c5bce36c0b80911af6c7d86ff27e89d5cfa61fc681327954e5d878787604051620005ca9392919062000cf6565b60405180910390a38573ffffffffffffffffffffffffffffffffffffffff16600073ffffffffffffffffffffffffffffffffffffffff167fddf252ad1be2c89b69c2b068fc378daa952ba7f163c4a11628f55a4df523b3ef8760405162000632919062000cd9565b60405180910390a3505050505050565b50505050565b6000731820a4b7618bde71dce8cdc73aab6c95905fad2473ffffffffffffffffffffffffffffffffffffffff1663aabbb8ca877fb281fc8c12954d22544db45de3159a39272895b169a852b314f9cc762e44c53b6040518363ffffffff1660e01b8152600401620006bb92919062000c2b565b60206040518083038186803b158015620006d457600080fd5b505afa158015620006e9573d6000803e3d6000fd5b505050506040513d601f19601f820116820180604052508101906200070f919062000a68565b9050600073ffffffffffffffffffffffffffffffffffffffff168173ffffffffffffffffffffffffffffffffffffffff1614620007c4578073ffffffffffffffffffffffffffffffffffffffff166223de298989898989896040518763ffffffff1660e01b81526004016200078a9695949392919062000bb0565b600060405180830381600087803b158015620007a557600080fd5b505af1158015620007ba573d6000803e3d6000fd5b505050506200083c565b81156200083b57620007f78673ffffffffffffffffffffffffffffffffffffffff166200084660201b620013591760201c565b156200083a576040517f08c379a0000000000000000000000000000000000000000000000000000000008152600401620008319062000cb7565b60405180910390fd5b5b5b5050505050505050565b600080823b905060008111915050919050565b828054620008679062000ea1565b90600052602060002090601f0160209004810192826200088b5760008555620008d7565b82601f10620008a657805160ff1916838001178555620008d7565b82800160010185558215620008d7579182015b82811115620008d6578251825591602001919060010190620008b9565b5b509050620008e6919062000979565b5090565b82805482825590600052602060002090810192821562000966579160200282015b82811115620009655782518260006101000a81548173ffffffffffffffffffffffffffffffffffffffff021916908373ffffffffffffffffffffffffffffffffffffffff160217905550916020019190600101906200090b565b5b50905062000975919062000979565b5090565b5b80821115620009945760008160009055506001016200097a565b5090565b6000620009af620009a98462000d6a565b62000d41565b90508083825260208201905082856020860282011115620009cf57600080fd5b60005b8581101562000a035781620009e8888262000a0d565b845260208401935060208301925050600181019050620009d2565b5050509392505050565b60008151905062000a1e8162001097565b92915050565b600082601f83011262000a3657600080fd5b815162000a4884826020860162000998565b91505092915050565b60008151905062000a6281620010b1565b92915050565b60006020828403121562000a7b57600080fd5b600062000a8b8482850162000a0d565b91505092915050565b6000806040838503121562000aa857600080fd5b600062000ab88582860162000a51565b925050602083015167ffffffffffffffff81111562000ad657600080fd5b62000ae48582860162000a24565b9150509250929050565b62000af98162000e23565b82525050565b62000b0a8162000e37565b82525050565b600062000b1d8262000d99565b62000b29818562000da4565b935062000b3b81856020860162000e6b565b62000b468162000fe8565b840191505092915050565b600062000b6060208362000db5565b915062000b6d8262000ff9565b602082019050919050565b600062000b87604d8362000db5565b915062000b948262001022565b606082019050919050565b62000baa8162000e61565b82525050565b600060c08201905062000bc7600083018962000aee565b62000bd6602083018862000aee565b62000be5604083018762000aee565b62000bf4606083018662000b9f565b818103608083015262000c08818562000b10565b905081810360a083015262000c1e818462000b10565b9050979650505050505050565b600060408201905062000c42600083018562000aee565b62000c51602083018462000aff565b9392505050565b600060608201905062000c6f600083018662000aee565b62000c7e602083018562000aff565b62000c8d604083018462000aee565b949350505050565b6000602082019050818103600083015262000cb08162000b51565b9050919050565b6000602082019050818103600083015262000cd28162000b78565b9050919050565b600060208201905062000cf0600083018462000b9f565b92915050565b600060608201905062000d0d600083018662000b9f565b818103602083015262000d21818562000b10565b9050818103604083015262000d37818462000b10565b9050949350505050565b600062000d4d62000d60565b905062000d5b828262000ed7565b919050565b6000604051905090565b600067ffffffffffffffff82111562000d885762000d8762000fb9565b5b602082029050602081019050919050565b600081519050919050565b600082825260208201905092915050565b600082825260208201905092915050565b600062000dd38262000e61565b915062000de08362000e61565b9250827fffffffffffffffffffffffffffffffffffffffffffffffffffffffffffffffff0382111562000e185762000e1762000f5b565b5b828201905092915050565b600062000e308262000e41565b9050919050565b6000819050919050565b600073ffffffffffffffffffffffffffffffffffffffff82169050919050565b6000819050919050565b60005b8381101562000e8b57808201518184015260208101905062000e6e565b8381111562000e9b576000848401525b50505050565b6000600282049050600182168062000eba57607f821691505b6020821081141562000ed15762000ed062000f8a565b5b50919050565b62000ee28262000fe8565b810181811067ffffffffffffffff8211171562000f045762000f0362000fb9565b5b80604052505050565b600062000f1a8262000e61565b91507fffffffffffffffffffffffffffffffffffffffffffffffffffffffffffffffff82141562000f505762000f4f62000f5b565b5b600182019050919050565b7f4e487b7100000000000000000000000000000000000000000000000000000000600052601160045260246000fd5b7f4e487b7100000000000000000000000000000000000000000000000000000000600052602260045260246000fd5b7f4e487b7100000000000000000000000000000000000000000000000000000000600052604160045260246000fd5b6000601f19601f8301169050919050565b7f4552433737373a206d696e7420746f20746865207a65726f2061646472657373600082015250565b7f4552433737373a20746f6b656e20726563697069656e7420636f6e747261637460008201527f20686173206e6f20696d706c656d656e74657220666f7220455243373737546f60208201527f6b656e73526563697069656e7400000000000000000000000000000000000000604082015250565b620010a28162000e23565b8114620010ae57600080fd5b50565b620010bc8162000e61565b8114620010c857600080fd5b50565b6131c480620010db6000396000f3fe608060405234801561001057600080fd5b50600436106101375760003560e01c80638da5cb5b116100b8578063d95b63711161007c578063d95b63711461032c578063dd62ed3e1461035c578063f2fde38b1461038c578063fad8b32a146103a8578063fc673c4f146103c4578063fe9d9303146103e057610137565b80638da5cb5b14610288578063959b8c3f146102a657806395d89b41146102c25780639bd9bbc6146102e0578063a9059cbb146102fc57610137565b8063313ce567116100ff578063313ce567146101f6578063556f0dc71461021457806362ad1b831461023257806370a082311461024e578063715018a61461027e57610137565b806306e485381461013c57806306fdde031461015a578063095ea7b31461017857806318160ddd146101a857806323b872dd146101c6575b600080fd5b6101446103fc565b60405161015191906126c9565b60405180910390f35b61016261048a565b60405161016f9190612706565b60405180910390f35b610192600480360381019061018d919061211a565b61051c565b60405161019f91906126eb565b60405180910390f35b6101b061053f565b6040516101bd9190612928565b60405180910390f35b6101e060048036038101906101db9190612024565b610549565b6040516101ed91906126eb565b60405180910390f35b6101fe6107a3565b60405161020b9190612988565b60405180910390f35b61021c6107ac565b6040516102299190612928565b60405180910390f35b61024c60048036038101906102479190612073565b6107b5565b005b61026860048036038101906102639190611f96565b61081b565b6040516102759190612928565b60405180910390f35b610286610863565b005b6102906108eb565b60405161029d9190612616565b60405180910390f35b6102c060048036038101906102bb9190611f96565b610915565b005b6102ca610b76565b6040516102d79190612706565b60405180910390f35b6102fa60048036038101906102f59190612156565b610c08565b005b6103166004803603810190610311919061211a565b610c32565b60405161032391906126eb565b60405180910390f35b61034660048036038101906103419190611fe8565b610d40565b60405161035391906126eb565b60405180910390f35b61037660048036038101906103719190611fe8565b610ef1565b6040516103839190612928565b60405180910390f35b6103a660048036038101906103a19190611f96565b610f78565b005b6103c260048036038101906103bd9190611f96565b611070565b005b6103de60048036038101906103d991906121bd565b6112d1565b005b6103fa60048036038101906103f59190612250565b611333565b005b6060600480548060200260200160405190810160405280929190818152602001828054801561048057602002820191906000526020600020905b8160009054906101000a900473ffffffffffffffffffffffffffffffffffffffff1673ffffffffffffffffffffffffffffffffffffffff1681526020019060010190808311610436575b5050505050905090565b60606002805461049990612b95565b80601f01602080910402602001604051908101604052809291908181526020018280546104c590612b95565b80156105125780601f106104e757610100808354040283529160200191610512565b820191906000526020600020905b8154815290600101906020018083116104f557829003601f168201915b5050505050905090565b60008061052761136c565b9050610534818585611374565b600191505092915050565b6000600154905090565b60008073ffffffffffffffffffffffffffffffffffffffff168373ffffffffffffffffffffffffffffffffffffffff1614156105ba576040517f08c379a00000000000000000000000000000000000000000000000000000000081526004016105b190612848565b60405180910390fd5b600073ffffffffffffffffffffffffffffffffffffffff168473ffffffffffffffffffffffffffffffffffffffff16141561062a576040517f08c379a0000000000000000000000000000000000000000000000000000000008152600401610621906128a8565b60405180910390fd5b600061063461136c565b905061066281868686604051806020016040528060008152506040518060200160405280600081525061153f565b61068e8186868660405180602001604052806000815250604051806020016040528060008152506116b5565b6000600860008773ffffffffffffffffffffffffffffffffffffffff1673ffffffffffffffffffffffffffffffffffffffff16815260200190815260200160002060008373ffffffffffffffffffffffffffffffffffffffff1673ffffffffffffffffffffffffffffffffffffffff16815260200190815260200160002054905083811015610752576040517f08c379a000000000000000000000000000000000000000000000000000000000815260040161074990612888565b60405180910390fd5b610768868386846107639190612ac0565b611374565b61079682878787604051806020016040528060008152506040518060200160405280600081525060006118cf565b6001925050509392505050565b60006012905090565b60006001905090565b6107c66107c061136c565b86610d40565b610805576040517f08c379a00000000000000000000000000000000000000000000000000000000081526004016107fc90612868565b60405180910390fd5b61081485858585856001611ab0565b5050505050565b60008060008373ffffffffffffffffffffffffffffffffffffffff1673ffffffffffffffffffffffffffffffffffffffff168152602001908152602001600020549050919050565b61086b61136c565b73ffffffffffffffffffffffffffffffffffffffff166108896108eb565b73ffffffffffffffffffffffffffffffffffffffff16146108df576040517f08c379a00000000000000000000000000000000000000000000000000000000081526004016108d690612808565b60405180910390fd5b6108e96000611bd0565b565b6000600960009054906101000a900473ffffffffffffffffffffffffffffffffffffffff16905090565b8073ffffffffffffffffffffffffffffffffffffffff1661093461136c565b73ffffffffffffffffffffffffffffffffffffffff16141561098b576040517f08c379a0000000000000000000000000000000000000000000000000000000008152600401610982906127c8565b60405180910390fd5b600560008273ffffffffffffffffffffffffffffffffffffffff1673ffffffffffffffffffffffffffffffffffffffff16815260200190815260200160002060009054906101000a900460ff1615610a7557600760006109e961136c565b73ffffffffffffffffffffffffffffffffffffffff1673ffffffffffffffffffffffffffffffffffffffff16815260200190815260200160002060008273ffffffffffffffffffffffffffffffffffffffff1673ffffffffffffffffffffffffffffffffffffffff16815260200190815260200160002060006101000a81549060ff0219169055610b12565b600160066000610a8361136c565b73ffffffffffffffffffffffffffffffffffffffff1673ffffffffffffffffffffffffffffffffffffffff16815260200190815260200160002060008373ffffffffffffffffffffffffffffffffffffffff1673ffffffffffffffffffffffffffffffffffffffff16815260200190815260200160002060006101000a81548160ff0219169083151502179055505b610b1a61136c565b73ffffffffffffffffffffffffffffffffffffffff168173ffffffffffffffffffffffffffffffffffffffff167ff4caeb2d6ca8932a215a353d0703c326ec2d81fc68170f320eb2ab49e9df61f960405160405180910390a350565b606060038054610b8590612b95565b80601f0160208091040260200160405190810160405280929190818152602001828054610bb190612b95565b8015610bfe5780601f10610bd357610100808354040283529160200191610bfe565b820191906000526020600020905b815481529060010190602001808311610be157829003601f168201915b5050505050905090565b610c2d610c1361136c565b848484604051806020016040528060008152506001611ab0565b505050565b60008073ffffffffffffffffffffffffffffffffffffffff168373ffffffffffffffffffffffffffffffffffffffff161415610ca3576040517f08c379a0000000000000000000000000000000000000000000000000000000008152600401610c9a90612848565b60405180910390fd5b6000610cad61136c565b9050610cdb81828686604051806020016040528060008152506040518060200160405280600081525061153f565b610d078182868660405180602001604052806000815250604051806020016040528060008152506116b5565b610d3581828686604051806020016040528060008152506040518060200160405280600081525060006118cf565b600191505092915050565b60008173ffffffffffffffffffffffffffffffffffffffff168373ffffffffffffffffffffffffffffffffffffffff161480610e585750600560008473ffffffffffffffffffffffffffffffffffffffff1673ffffffffffffffffffffffffffffffffffffffff16815260200190815260200160002060009054906101000a900460ff168015610e575750600760008373ffffffffffffffffffffffffffffffffffffffff1673ffffffffffffffffffffffffffffffffffffffff16815260200190815260200160002060008473ffffffffffffffffffffffffffffffffffffffff1673ffffffffffffffffffffffffffffffffffffffff16815260200190815260200160002060009054906101000a900460ff16155b5b80610ee95750600660008373ffffffffffffffffffffffffffffffffffffffff1673ffffffffffffffffffffffffffffffffffffffff16815260200190815260200160002060008473ffffffffffffffffffffffffffffffffffffffff1673ffffffffffffffffffffffffffffffffffffffff16815260200190815260200160002060009054906101000a900460ff165b905092915050565b6000600860008473ffffffffffffffffffffffffffffffffffffffff1673ffffffffffffffffffffffffffffffffffffffff16815260200190815260200160002060008373ffffffffffffffffffffffffffffffffffffffff1673ffffffffffffffffffffffffffffffffffffffff16815260200190815260200160002054905092915050565b610f8061136c565b73ffffffffffffffffffffffffffffffffffffffff16610f9e6108eb565b73ffffffffffffffffffffffffffffffffffffffff1614610ff4576040517f08c379a0000000000000000000000000000000000000000000000000000000008152600401610feb90612808565b60405180910390fd5b600073ffffffffffffffffffffffffffffffffffffffff168173ffffffffffffffffffffffffffffffffffffffff161415611064576040517f08c379a000000000000000000000000000000000000000000000000000000000815260040161105b90612788565b60405180910390fd5b61106d81611bd0565b50565b61107861136c565b73ffffffffffffffffffffffffffffffffffffffff168173ffffffffffffffffffffffffffffffffffffffff1614156110e6576040517f08c379a00000000000000000000000000000000000000000000000000000000081526004016110dd906127e8565b60405180910390fd5b600560008273ffffffffffffffffffffffffffffffffffffffff1673ffffffffffffffffffffffffffffffffffffffff16815260200190815260200160002060009054906101000a900460ff16156111d95760016007600061114661136c565b73ffffffffffffffffffffffffffffffffffffffff1673ffffffffffffffffffffffffffffffffffffffff16815260200190815260200160002060008373ffffffffffffffffffffffffffffffffffffffff1673ffffffffffffffffffffffffffffffffffffffff16815260200190815260200160002060006101000a81548160ff02191690831515021790555061126d565b600660006111e561136c565b73ffffffffffffffffffffffffffffffffffffffff1673ffffffffffffffffffffffffffffffffffffffff16815260200190815260200160002060008273ffffffffffffffffffffffffffffffffffffffff1673ffffffffffffffffffffffffffffffffffffffff16815260200190815260200160002060006101000a81549060ff02191690555b61127561136c565b73ffffffffffffffffffffffffffffffffffffffff168173ffffffffffffffffffffffffffffffffffffffff167f50546e66e5f44d728365dc3908c63bc5cfeeab470722c1677e3073a6ac294aa160405160405180910390a350565b6112e26112dc61136c565b85610d40565b611321576040517f08c379a000000000000000000000000000000000000000000000000000000000815260040161131890612868565b60405180910390fd5b61132d84848484611c96565b50505050565b61135561133e61136c565b838360405180602001604052806000815250611c96565b5050565b600080823b905060008111915050919050565b600033905090565b600073ffffffffffffffffffffffffffffffffffffffff168373ffffffffffffffffffffffffffffffffffffffff1614156113e4576040517f08c379a00000000000000000000000000000000000000000000000000000000081526004016113db90612728565b60405180910390fd5b600073ffffffffffffffffffffffffffffffffffffffff168273ffffffffffffffffffffffffffffffffffffffff161415611454576040517f08c379a000000000000000000000000000000000000000000000000000000000815260040161144b90612908565b60405180910390fd5b80600860008573ffffffffffffffffffffffffffffffffffffffff1673ffffffffffffffffffffffffffffffffffffffff16815260200190815260200160002060008473ffffffffffffffffffffffffffffffffffffffff1673ffffffffffffffffffffffffffffffffffffffff168152602001908152602001600020819055508173ffffffffffffffffffffffffffffffffffffffff168373ffffffffffffffffffffffffffffffffffffffff167f8c5be1e5ebec7d5bd14f71427d1e84f3dd0314c0f7b2291e5b200ac8c7c3b925836040516115329190612928565b60405180910390a3505050565b6000731820a4b7618bde71dce8cdc73aab6c95905fad2473ffffffffffffffffffffffffffffffffffffffff1663aabbb8ca877f29ddb589b1fb5fc7cf394961c1adf5f8c6454761adf795e67fe149f658abe8956040518363ffffffff1660e01b81526004016115b09291906126a0565b60206040518083038186803b1580156115c857600080fd5b505afa1580156115dc573d6000803e3d6000fd5b505050506040513d601f19601f820116820180604052508101906116009190611fbf565b9050600073ffffffffffffffffffffffffffffffffffffffff168173ffffffffffffffffffffffffffffffffffffffff16146116ac578073ffffffffffffffffffffffffffffffffffffffff166375ab97828888888888886040518763ffffffff1660e01b815260040161167996959493929190612631565b600060405180830381600087803b15801561169357600080fd5b505af11580156116a7573d6000803e3d6000fd5b505050505b50505050505050565b6116c186868686611ee9565b60008060008773ffffffffffffffffffffffffffffffffffffffff1673ffffffffffffffffffffffffffffffffffffffff16815260200190815260200160002054905083811015611747576040517f08c379a000000000000000000000000000000000000000000000000000000000815260040161173e90612768565b60405180910390fd5b8381036000808873ffffffffffffffffffffffffffffffffffffffff1673ffffffffffffffffffffffffffffffffffffffff16815260200190815260200160002081905550836000808773ffffffffffffffffffffffffffffffffffffffff1673ffffffffffffffffffffffffffffffffffffffff16815260200190815260200160002060008282546117da9190612a6a565b925050819055508473ffffffffffffffffffffffffffffffffffffffff168673ffffffffffffffffffffffffffffffffffffffff168873ffffffffffffffffffffffffffffffffffffffff167f06b541ddaa720db2b10a4d0cdac39b8d360425fc073085fac19bc8261467798787878760405161185993929190612943565b60405180910390a48473ffffffffffffffffffffffffffffffffffffffff168673ffffffffffffffffffffffffffffffffffffffff167fddf252ad1be2c89b69c2b068fc378daa952ba7f163c4a11628f55a4df523b3ef866040516118be9190612928565b60405180910390a350505050505050565b6000731820a4b7618bde71dce8cdc73aab6c95905fad2473ffffffffffffffffffffffffffffffffffffffff1663aabbb8ca877fb281fc8c12954d22544db45de3159a39272895b169a852b314f9cc762e44c53b6040518363ffffffff1660e01b81526004016119409291906126a0565b60206040518083038186803b15801561195857600080fd5b505afa15801561196c573d6000803e3d6000fd5b505050506040513d601f19601f820116820180604052508101906119909190611fbf565b9050600073ffffffffffffffffffffffffffffffffffffffff168173ffffffffffffffffffffffffffffffffffffffff1614611a3f578073ffffffffffffffffffffffffffffffffffffffff166223de298989898989896040518763ffffffff1660e01b8152600401611a0896959493929190612631565b600060405180830381600087803b158015611a2257600080fd5b505af1158015611a36573d6000803e3d6000fd5b50505050611aa6565b8115611aa557611a648673ffffffffffffffffffffffffffffffffffffffff16611359565b15611aa4576040517f08c379a0000000000000000000000000000000000000000000000000000000008152600401611a9b90612828565b60405180910390fd5b5b5b5050505050505050565b600073ffffffffffffffffffffffffffffffffffffffff168673ffffffffffffffffffffffffffffffffffffffff161415611b20576040517f08c379a0000000000000000000000000000000000000000000000000000000008152600401611b1790612748565b60405180910390fd5b600073ffffffffffffffffffffffffffffffffffffffff168573ffffffffffffffffffffffffffffffffffffffff161415611b90576040517f08c379a0000000000000000000000000000000000000000000000000000000008152600401611b87906128e8565b60405180910390fd5b6000611b9a61136c565b9050611baa81888888888861153f565b611bb88188888888886116b5565b611bc7818888888888886118cf565b50505050505050565b6000600960009054906101000a900473ffffffffffffffffffffffffffffffffffffffff16905081600960006101000a81548173ffffffffffffffffffffffffffffffffffffffff021916908373ffffffffffffffffffffffffffffffffffffffff1602179055508173ffffffffffffffffffffffffffffffffffffffff168173ffffffffffffffffffffffffffffffffffffffff167f8be0079c531659141344cd1fd0a4f28419497f9722a3daafe3b4186f6b6457e060405160405180910390a35050565b600073ffffffffffffffffffffffffffffffffffffffff168473ffffffffffffffffffffffffffffffffffffffff161415611d06576040517f08c379a0000000000000000000000000000000000000000000000000000000008152600401611cfd906127a8565b60405180910390fd5b6000611d1061136c565b9050611d218186600087878761153f565b611d2e8186600087611ee9565b60008060008773ffffffffffffffffffffffffffffffffffffffff1673ffffffffffffffffffffffffffffffffffffffff16815260200190815260200160002054905084811015611db4576040517f08c379a0000000000000000000000000000000000000000000000000000000008152600401611dab906128c8565b60405180910390fd5b8481036000808873ffffffffffffffffffffffffffffffffffffffff1673ffffffffffffffffffffffffffffffffffffffff168152602001908152602001600020819055508460016000828254611e0b9190612ac0565b925050819055508573ffffffffffffffffffffffffffffffffffffffff168273ffffffffffffffffffffffffffffffffffffffff167fa78a9be3a7b862d26933ad85fb11d80ef66b8f972d7cbba06621d583943a4098878787604051611e7393929190612943565b60405180910390a3600073ffffffffffffffffffffffffffffffffffffffff168673ffffffffffffffffffffffffffffffffffffffff167fddf252ad1be2c89b69c2b068fc378daa952ba7f163c4a11628f55a4df523b3ef87604051611ed99190612928565b60405180910390a3505050505050565b50505050565b6000611f02611efd846129c8565b6129a3565b905082815260208101848484011115611f1a57600080fd5b611f25848285612b53565b509392505050565b600081359050611f3c81613160565b92915050565b600081519050611f5181613160565b92915050565b600082601f830112611f6857600080fd5b8135611f78848260208601611eef565b91505092915050565b600081359050611f9081613177565b92915050565b600060208284031215611fa857600080fd5b6000611fb684828501611f2d565b91505092915050565b600060208284031215611fd157600080fd5b6000611fdf84828501611f42565b91505092915050565b60008060408385031215611ffb57600080fd5b600061200985828601611f2d565b925050602061201a85828601611f2d565b9150509250929050565b60008060006060848603121561203957600080fd5b600061204786828701611f2d565b935050602061205886828701611f2d565b925050604061206986828701611f81565b9150509250925092565b600080600080600060a0868803121561208b57600080fd5b600061209988828901611f2d565b95505060206120aa88828901611f2d565b94505060406120bb88828901611f81565b935050606086013567ffffffffffffffff8111156120d857600080fd5b6120e488828901611f57565b925050608086013567ffffffffffffffff81111561210157600080fd5b61210d88828901611f57565b9150509295509295909350565b6000806040838503121561212d57600080fd5b600061213b85828601611f2d565b925050602061214c85828601611f81565b9150509250929050565b60008060006060848603121561216b57600080fd5b600061217986828701611f2d565b935050602061218a86828701611f81565b925050604084013567ffffffffffffffff8111156121a757600080fd5b6121b386828701611f57565b9150509250925092565b600080600080608085870312156121d357600080fd5b60006121e187828801611f2d565b94505060206121f287828801611f81565b935050604085013567ffffffffffffffff81111561220f57600080fd5b61221b87828801611f57565b925050606085013567ffffffffffffffff81111561223857600080fd5b61224487828801611f57565b91505092959194509250565b6000806040838503121561226357600080fd5b600061227185828601611f81565b925050602083013567ffffffffffffffff81111561228e57600080fd5b61229a85828601611f57565b9150509250929050565b60006122b083836122bc565b60208301905092915050565b6122c581612af4565b82525050565b6122d481612af4565b82525050565b60006122e582612a09565b6122ef8185612a37565b93506122fa836129f9565b8060005b8381101561232b57815161231288826122a4565b975061231d83612a2a565b9250506001810190506122fe565b5085935050505092915050565b61234181612b06565b82525050565b61235081612b12565b82525050565b600061236182612a14565b61236b8185612a48565b935061237b818560208601612b62565b61238481612c85565b840191505092915050565b600061239a82612a1f565b6123a48185612a59565b93506123b4818560208601612b62565b6123bd81612c85565b840191505092915050565b60006123d5602583612a59565b91506123e082612c96565b604082019050919050565b60006123f8602283612a59565b915061240382612ce5565b604082019050919050565b600061241b602783612a59565b915061242682612d34565b604082019050919050565b600061243e602683612a59565b915061244982612d83565b604082019050919050565b6000612461602283612a59565b915061246c82612dd2565b604082019050919050565b6000612484602483612a59565b915061248f82612e21565b604082019050919050565b60006124a7602183612a59565b91506124b282612e70565b604082019050919050565b60006124ca602083612a59565b91506124d582612ebf565b602082019050919050565b60006124ed604d83612a59565b91506124f882612ee8565b606082019050919050565b6000612510602483612a59565b915061251b82612f5d565b604082019050919050565b6000612533602c83612a59565b915061253e82612fac565b604082019050919050565b6000612556602983612a59565b915061256182612ffb565b604082019050919050565b6000612579602683612a59565b91506125848261304a565b604082019050919050565b600061259c602383612a59565b91506125a782613099565b604082019050919050565b60006125bf602083612a59565b91506125ca826130e8565b602082019050919050565b60006125e2602383612a59565b91506125ed82613111565b604082019050919050565b61260181612b3c565b82525050565b61261081612b46565b82525050565b600060208201905061262b60008301846122cb565b92915050565b600060c08201905061264660008301896122cb565b61265360208301886122cb565b61266060408301876122cb565b61266d60608301866125f8565b818103608083015261267f8185612356565b905081810360a08301526126938184612356565b9050979650505050505050565b60006040820190506126b560008301856122cb565b6126c26020830184612347565b9392505050565b600060208201905081810360008301526126e381846122da565b905092915050565b60006020820190506127006000830184612338565b92915050565b60006020820190508181036000830152612720818461238f565b905092915050565b60006020820190508181036000830152612741816123c8565b9050919050565b60006020820190508181036000830152612761816123eb565b9050919050565b600060208201905081810360008301526127818161240e565b9050919050565b600060208201905081810360008301526127a181612431565b9050919050565b600060208201905081810360008301526127c181612454565b9050919050565b600060208201905081810360008301526127e181612477565b9050919050565b600060208201905081810360008301526128018161249a565b9050919050565b60006020820190508181036000830152612821816124bd565b9050919050565b60006020820190508181036000830152612841816124e0565b9050919050565b6000602082019050818103600083015261286181612503565b9050919050565b6000602082019050818103600083015261288181612526565b9050919050565b600060208201905081810360008301526128a181612549565b9050919050565b600060208201905081810360008301526128c18161256c565b9050919050565b600060208201905081810360008301526128e18161258f565b9050919050565b60006020820190508181036000830152612901816125b2565b9050919050565b60006020820190508181036000830152612921816125d5565b9050919050565b600060208201905061293d60008301846125f8565b92915050565b600060608201905061295860008301866125f8565b818103602083015261296a8185612356565b9050818103604083015261297e8184612356565b9050949350505050565b600060208201905061299d6000830184612607565b92915050565b60006129ad6129be565b90506129b98282612bc7565b919050565b6000604051905090565b600067ffffffffffffffff8211156129e3576129e2612c56565b5b6129ec82612c85565b9050602081019050919050565b6000819050602082019050919050565b600081519050919050565b600081519050919050565b600081519050919050565b6000602082019050919050565b600082825260208201905092915050565b600082825260208201905092915050565b600082825260208201905092915050565b6000612a7582612b3c565b9150612a8083612b3c565b9250827fffffffffffffffffffffffffffffffffffffffffffffffffffffffffffffffff03821115612ab557612ab4612bf8565b5b828201905092915050565b6000612acb82612b3c565b9150612ad683612b3c565b925082821015612ae957612ae8612bf8565b5b828203905092915050565b6000612aff82612b1c565b9050919050565b60008115159050919050565b6000819050919050565b600073ffffffffffffffffffffffffffffffffffffffff82169050919050565b6000819050919050565b600060ff82169050919050565b82818337600083830152505050565b60005b83811015612b80578082015181840152602081019050612b65565b83811115612b8f576000848401525b50505050565b60006002820490506001821680612bad57607f821691505b60208210811415612bc157612bc0612c27565b5b50919050565b612bd082612c85565b810181811067ffffffffffffffff82111715612bef57612bee612c56565b5b80604052505050565b7f4e487b7100000000000000000000000000000000000000000000000000000000600052601160045260246000fd5b7f4e487b7100000000000000000000000000000000000000000000000000000000600052602260045260246000fd5b7f4e487b7100000000000000000000000000000000000000000000000000000000600052604160045260246000fd5b6000601f19601f8301169050919050565b7f4552433737373a20617070726f76652066726f6d20746865207a65726f20616460008201527f6472657373000000000000000000000000000000000000000000000000000000602082015250565b7f4552433737373a2073656e642066726f6d20746865207a65726f20616464726560008201527f7373000000000000000000000000000000000000000000000000000000000000602082015250565b7f4552433737373a207472616e7366657220616d6f756e7420657863656564732060008201527f62616c616e636500000000000000000000000000000000000000000000000000602082015250565b7f4f776e61626c653a206e6577206f776e657220697320746865207a65726f206160008201527f6464726573730000000000000000000000000000000000000000000000000000602082015250565b7f4552433737373a206275726e2066726f6d20746865207a65726f20616464726560008201527f7373000000000000000000000000000000000000000000000000000000000000602082015250565b7f4552433737373a20617574686f72697a696e672073656c66206173206f70657260008201527f61746f7200000000000000000000000000000000000000000000000000000000602082015250565b7f4552433737373a207265766f6b696e672073656c66206173206f70657261746f60008201527f7200000000000000000000000000000000000000000000000000000000000000602082015250565b7f4f776e61626c653a2063616c6c6572206973206e6f7420746865206f776e6572600082015250565b7f4552433737373a20746f6b656e20726563697069656e7420636f6e747261637460008201527f20686173206e6f20696d706c656d656e74657220666f7220455243373737546f60208201527f6b656e73526563697069656e7400000000000000000000000000000000000000604082015250565b7f4552433737373a207472616e7366657220746f20746865207a65726f2061646460008201527f7265737300000000000000000000000000000000000000000000000000000000602082015250565b7f4552433737373a2063616c6c6572206973206e6f7420616e206f70657261746f60008201527f7220666f7220686f6c6465720000000000000000000000000000000000000000602082015250565b7f4552433737373a207472616e7366657220616d6f756e7420657863656564732060008201527f616c6c6f77616e63650000000000000000000000000000000000000000000000602082015250565b7f4552433737373a207472616e736665722066726f6d20746865207a65726f206160008201527f6464726573730000000000000000000000000000000000000000000000000000602082015250565b7f4552433737373a206275726e20616d6f756e7420657863656564732062616c6160008201527f6e63650000000000000000000000000000000000000000000000000000000000602082015250565b7f4552433737373a2073656e6420746f20746865207a65726f2061646472657373600082015250565b7f4552433737373a20617070726f766520746f20746865207a65726f206164647260008201527f6573730000000000000000000000000000000000000000000000000000000000602082015250565b61316981612af4565b811461317457600080fd5b50565b61318081612b3c565b811461318b57600080fd5b5056fea26469706673582212207dd242865e9f5cc5720c3c5e483eaed42da987a7a15ab0dc0e72d04bc48158f364736f6c63430008040033",
  "linkReferences": {},
  "deployedLinkReferences": {}
}